{
  "contractName": "MyToken",
  "abi": [
    {
      "inputs": [
        {
          "internalType": "address payable",
          "name": "_marketingAddress",
          "type": "address"
        }
      ],
      "stateMutability": "payable",
      "type": "constructor"
    },
    {
      "anonymous": false,
      "inputs": [
        {
          "indexed": true,
          "internalType": "address",
          "name": "owner",
          "type": "address"
        },
        {
          "indexed": true,
          "internalType": "address",
          "name": "spender",
          "type": "address"
        },
        {
          "indexed": false,
          "internalType": "uint256",
          "name": "value",
          "type": "uint256"
        }
      ],
      "name": "Approval",
      "type": "event"
    },
    {
      "anonymous": false,
      "inputs": [
        {
          "indexed": true,
          "internalType": "address",
          "name": "previousOwner",
          "type": "address"
        },
        {
          "indexed": true,
          "internalType": "address",
          "name": "newOwner",
          "type": "address"
        }
      ],
      "name": "OwnershipTransferred",
      "type": "event"
    },
    {
      "anonymous": false,
      "inputs": [
        {
          "indexed": true,
          "internalType": "address",
          "name": "from",
          "type": "address"
        },
        {
          "indexed": true,
          "internalType": "address",
          "name": "to",
          "type": "address"
        },
        {
          "indexed": false,
          "internalType": "uint256",
          "name": "value",
          "type": "uint256"
        }
      ],
      "name": "Transfer",
      "type": "event"
    },
    {
      "inputs": [
        {
          "internalType": "address",
          "name": "owner",
          "type": "address"
        },
        {
          "internalType": "address",
          "name": "spender",
          "type": "address"
        }
      ],
      "name": "allowance",
      "outputs": [
        {
          "internalType": "uint256",
          "name": "",
          "type": "uint256"
        }
      ],
      "stateMutability": "view",
      "type": "function"
    },
    {
      "inputs": [
        {
          "internalType": "address",
          "name": "account",
          "type": "address"
        }
      ],
      "name": "balanceOf",
      "outputs": [
        {
          "internalType": "uint256",
          "name": "",
          "type": "uint256"
        }
      ],
      "stateMutability": "view",
      "type": "function"
    },
    {
      "inputs": [
        {
          "internalType": "address",
          "name": "account",
          "type": "address"
        },
        {
          "internalType": "uint256",
          "name": "amount",
          "type": "uint256"
        }
      ],
      "name": "burnFrom",
      "outputs": [],
      "stateMutability": "nonpayable",
      "type": "function"
    },
    {
      "inputs": [],
      "name": "deadAddress",
      "outputs": [
        {
          "internalType": "address",
          "name": "",
          "type": "address"
        }
      ],
      "stateMutability": "view",
      "type": "function"
    },
    {
      "inputs": [
        {
          "internalType": "address",
          "name": "spender",
          "type": "address"
        },
        {
          "internalType": "uint256",
          "name": "subtractedValue",
          "type": "uint256"
        }
      ],
      "name": "decreaseAllowance",
      "outputs": [
        {
          "internalType": "bool",
          "name": "",
          "type": "bool"
        }
      ],
      "stateMutability": "nonpayable",
      "type": "function"
    },
    {
      "inputs": [
        {
          "internalType": "address",
          "name": "spender",
          "type": "address"
        },
        {
          "internalType": "uint256",
          "name": "addedValue",
          "type": "uint256"
        }
      ],
      "name": "increaseAllowance",
      "outputs": [
        {
          "internalType": "bool",
          "name": "",
          "type": "bool"
        }
      ],
      "stateMutability": "nonpayable",
      "type": "function"
    },
    {
      "inputs": [],
      "name": "initialDistributionFinished",
      "outputs": [
        {
          "internalType": "bool",
          "name": "",
          "type": "bool"
        }
      ],
      "stateMutability": "view",
      "type": "function"
    },
    {
      "inputs": [],
      "name": "lp",
      "outputs": [
        {
          "internalType": "address",
          "name": "",
          "type": "address"
        }
      ],
      "stateMutability": "view",
      "type": "function"
    },
    {
      "inputs": [],
      "name": "lpContract",
      "outputs": [
        {
          "internalType": "contract ILP",
          "name": "",
          "type": "address"
        }
      ],
      "stateMutability": "view",
      "type": "function"
    },
    {
      "inputs": [],
      "name": "marketingAddress",
      "outputs": [
        {
          "internalType": "address payable",
          "name": "",
          "type": "address"
        }
      ],
      "stateMutability": "view",
      "type": "function"
    },
    {
      "inputs": [],
      "name": "master",
      "outputs": [
        {
          "internalType": "address",
          "name": "",
          "type": "address"
        }
      ],
      "stateMutability": "view",
      "type": "function"
    },
    {
      "inputs": [],
      "name": "name",
      "outputs": [
        {
          "internalType": "string",
          "name": "",
          "type": "string"
        }
      ],
      "stateMutability": "view",
      "type": "function"
    },
    {
      "inputs": [],
      "name": "owner",
      "outputs": [
        {
          "internalType": "address",
          "name": "",
          "type": "address"
        }
      ],
      "stateMutability": "view",
      "type": "function"
    },
    {
      "inputs": [],
      "name": "renounceOwnership",
      "outputs": [],
      "stateMutability": "nonpayable",
      "type": "function"
    },
    {
      "inputs": [],
      "name": "symbol",
      "outputs": [
        {
          "internalType": "string",
          "name": "",
          "type": "string"
        }
      ],
      "stateMutability": "view",
      "type": "function"
    },
    {
      "inputs": [],
      "name": "transactionTax",
      "outputs": [
        {
          "internalType": "uint256",
          "name": "",
          "type": "uint256"
        }
      ],
      "stateMutability": "view",
      "type": "function"
    },
    {
      "inputs": [
        {
          "internalType": "address",
          "name": "sender",
          "type": "address"
        },
        {
          "internalType": "address",
          "name": "recipient",
          "type": "address"
        },
        {
          "internalType": "uint256",
          "name": "amount",
          "type": "uint256"
        }
      ],
      "name": "transferFrom",
      "outputs": [
        {
          "internalType": "bool",
          "name": "",
          "type": "bool"
        }
      ],
      "stateMutability": "nonpayable",
      "type": "function"
    },
    {
      "inputs": [
        {
          "internalType": "address",
          "name": "newOwner",
          "type": "address"
        }
      ],
      "name": "transferOwnership",
      "outputs": [],
      "stateMutability": "nonpayable",
      "type": "function"
    },
    {
      "inputs": [],
      "name": "uniswapV2Pair",
      "outputs": [
        {
          "internalType": "contract IUniswapV2Pair",
          "name": "",
          "type": "address"
        }
      ],
      "stateMutability": "view",
      "type": "function"
    },
    {
      "inputs": [],
      "name": "uniswapV2PairAddress",
      "outputs": [
        {
          "internalType": "address",
          "name": "",
          "type": "address"
        }
      ],
      "stateMutability": "view",
      "type": "function"
    },
    {
      "inputs": [],
      "name": "uniswapV2Router",
      "outputs": [
        {
          "internalType": "contract IUniswapV2Router02",
          "name": "",
          "type": "address"
        }
      ],
      "stateMutability": "view",
      "type": "function"
    },
    {
      "inputs": [
        {
          "internalType": "address",
          "name": "_master",
          "type": "address"
        }
      ],
      "name": "setMaster",
      "outputs": [],
      "stateMutability": "nonpayable",
      "type": "function"
    },
    {
      "inputs": [
        {
          "internalType": "address",
          "name": "_lp",
          "type": "address"
        }
      ],
      "name": "setLP",
      "outputs": [],
      "stateMutability": "nonpayable",
      "type": "function"
    },
    {
      "inputs": [],
      "name": "decimals",
      "outputs": [
        {
          "internalType": "uint8",
          "name": "",
          "type": "uint8"
        }
      ],
      "stateMutability": "view",
      "type": "function"
    },
    {
      "inputs": [],
      "name": "totalSupply",
      "outputs": [
        {
          "internalType": "uint256",
          "name": "",
          "type": "uint256"
        }
      ],
      "stateMutability": "view",
      "type": "function"
    },
    {
      "inputs": [
        {
          "internalType": "address",
          "name": "spender",
          "type": "address"
        },
        {
          "internalType": "uint256",
          "name": "value",
          "type": "uint256"
        }
      ],
      "name": "approve",
      "outputs": [
        {
          "internalType": "bool",
          "name": "",
          "type": "bool"
        }
      ],
      "stateMutability": "nonpayable",
      "type": "function"
    },
    {
      "inputs": [
        {
          "internalType": "address",
          "name": "recipient",
          "type": "address"
        },
        {
          "internalType": "uint256",
          "name": "amount",
          "type": "uint256"
        }
      ],
      "name": "transfer",
      "outputs": [
        {
          "internalType": "bool",
          "name": "",
          "type": "bool"
        }
      ],
      "stateMutability": "nonpayable",
      "type": "function"
    },
    {
      "inputs": [],
      "name": "setInitialDistributionFinished",
      "outputs": [],
      "stateMutability": "nonpayable",
      "type": "function"
    },
    {
      "inputs": [
        {
          "internalType": "address",
          "name": "_addr",
          "type": "address"
        }
      ],
      "name": "enableTransfer",
      "outputs": [],
      "stateMutability": "nonpayable",
      "type": "function"
    },
    {
      "inputs": [
        {
          "internalType": "address",
          "name": "_addr",
          "type": "address"
        }
      ],
      "name": "excludeAddress",
      "outputs": [],
      "stateMutability": "nonpayable",
      "type": "function"
    },
    {
      "inputs": [
        {
          "internalType": "address",
          "name": "to",
          "type": "address"
        },
        {
          "internalType": "uint256",
          "name": "amount",
          "type": "uint256"
        }
      ],
      "name": "mint",
      "outputs": [],
      "stateMutability": "nonpayable",
      "type": "function"
    },
    {
      "inputs": [
        {
          "internalType": "uint256",
          "name": "amount",
          "type": "uint256"
        }
      ],
      "name": "burn",
      "outputs": [],
      "stateMutability": "nonpayable",
      "type": "function"
    },
    {
      "inputs": [
        {
          "internalType": "address payable",
          "name": "burnAddress",
          "type": "address"
        },
        {
          "internalType": "uint256",
          "name": "amount",
          "type": "uint256"
        }
      ],
      "name": "burn",
      "outputs": [],
      "stateMutability": "nonpayable",
      "type": "function"
    }
  ],
  "bytecode": "0x608060405261dead600f60006101000a81548173ffffffffffffffffffffffffffffffffffffffff021916908373ffffffffffffffffffffffffffffffffffffffff1602179055506103d5601055604051620039fc380380620039fc83398181016040528101906200007291906200095f565b6040518060400160405280600981526020017f4d455441535155494400000000000000000000000000000000000000000000008152506040518060400160405280600381526020017f4d535100000000000000000000000000000000000000000000000000000000008152508160039080519060200190620000f692919062000845565b5080600490805190602001906200010f92919062000845565b50505062000132620001266200063960201b60201c565b6200064160201b60201c565b80600e60006101000a81548173ffffffffffffffffffffffffffffffffffffffff021916908373ffffffffffffffffffffffffffffffffffffffff1602179055506000737a250d5630b4cf539739df2c5dacb4c659f2488d90508073ffffffffffffffffffffffffffffffffffffffff1663c45a01556040518163ffffffff1660e01b815260040160206040518083038186803b158015620001d357600080fd5b505afa158015620001e8573d6000803e3d6000fd5b505050506040513d601f19601f820116820180604052508101906200020e9190620009d6565b73ffffffffffffffffffffffffffffffffffffffff1663c9c65396308373ffffffffffffffffffffffffffffffffffffffff1663ad5c46486040518163ffffffff1660e01b815260040160206040518083038186803b1580156200027157600080fd5b505afa15801562000286573d6000803e3d6000fd5b505050506040513d601f19601f82011682018060405250810190620002ac9190620009d6565b6040518363ffffffff1660e01b8152600401620002cb92919062000a19565b602060405180830381600087803b158015620002e657600080fd5b505af1158015620002fb573d6000803e3d6000fd5b505050506040513d601f19601f82011682018060405250810190620003219190620009d6565b601360006101000a81548173ffffffffffffffffffffffffffffffffffffffff021916908373ffffffffffffffffffffffffffffffffffffffff16021790555080601160006101000a81548173ffffffffffffffffffffffffffffffffffffffff021916908373ffffffffffffffffffffffffffffffffffffffff160217905550620003d5601360009054906101000a900473ffffffffffffffffffffffffffffffffffffffff166200070760201b60201c565b6000601360009054906101000a900473ffffffffffffffffffffffffffffffffffffffff16905080601260006101000a81548173ffffffffffffffffffffffffffffffffffffffff021916908373ffffffffffffffffffffffffffffffffffffffff1602179055506009600a6200044d919062000bd3565b66038d7ea4c6800062000461919062000c24565b6009819055506009600a62000477919062000bd3565b66038d7ea4c680006200048b919062000c24565b6000196200049a919062000cb4565b600019620004a9919062000cec565b600b60003373ffffffffffffffffffffffffffffffffffffffff1673ffffffffffffffffffffffffffffffffffffffff168152602001908152602001600020819055506000600a60006101000a81548160ff0219169083151502179055506001600c60006200051d6200081b60201b60201c565b73ffffffffffffffffffffffffffffffffffffffff1673ffffffffffffffffffffffffffffffffffffffff16815260200190815260200160002060006101000a81548160ff0219169083151502179055506001600c60003073ffffffffffffffffffffffffffffffffffffffff1673ffffffffffffffffffffffffffffffffffffffff16815260200190815260200160002060006101000a81548160ff0219169083151502179055503373ffffffffffffffffffffffffffffffffffffffff16600073ffffffffffffffffffffffffffffffffffffffff167fddf252ad1be2c89b69c2b068fc378daa952ba7f163c4a11628f55a4df523b3ef60095460405162000628919062000d38565b60405180910390a350505062000e3d565b600033905090565b6000600560009054906101000a900473ffffffffffffffffffffffffffffffffffffffff16905081600560006101000a81548173ffffffffffffffffffffffffffffffffffffffff021916908373ffffffffffffffffffffffffffffffffffffffff1602179055508173ffffffffffffffffffffffffffffffffffffffff168173ffffffffffffffffffffffffffffffffffffffff167f8be0079c531659141344cd1fd0a4f28419497f9722a3daafe3b4186f6b6457e060405160405180910390a35050565b620007176200063960201b60201c565b73ffffffffffffffffffffffffffffffffffffffff166200073d6200081b60201b60201c565b73ffffffffffffffffffffffffffffffffffffffff161462000796576040517f08c379a00000000000000000000000000000000000000000000000000000000081526004016200078d9062000db6565b60405180910390fd5b80600760006101000a81548173ffffffffffffffffffffffffffffffffffffffff021916908373ffffffffffffffffffffffffffffffffffffffff16021790555080600860006101000a81548173ffffffffffffffffffffffffffffffffffffffff021916908373ffffffffffffffffffffffffffffffffffffffff16021790555050565b6000600560009054906101000a900473ffffffffffffffffffffffffffffffffffffffff16905090565b828054620008539062000e07565b90600052602060002090601f016020900481019282620008775760008555620008c3565b82601f106200089257805160ff1916838001178555620008c3565b82800160010185558215620008c3579182015b82811115620008c2578251825591602001919060010190620008a5565b5b509050620008d29190620008d6565b5090565b5b80821115620008f1576000816000905550600101620008d7565b5090565b600080fd5b600073ffffffffffffffffffffffffffffffffffffffff82169050919050565b60006200092782620008fa565b9050919050565b62000939816200091a565b81146200094557600080fd5b50565b60008151905062000959816200092e565b92915050565b600060208284031215620009785762000977620008f5565b5b6000620009888482850162000948565b91505092915050565b60006200099e82620008fa565b9050919050565b620009b08162000991565b8114620009bc57600080fd5b50565b600081519050620009d081620009a5565b92915050565b600060208284031215620009ef57620009ee620008f5565b5b6000620009ff84828501620009bf565b91505092915050565b62000a138162000991565b82525050565b600060408201905062000a30600083018562000a08565b62000a3f602083018462000a08565b9392505050565b7f4e487b7100000000000000000000000000000000000000000000000000000000600052601160045260246000fd5b60008160011c9050919050565b6000808291508390505b600185111562000ad45780860481111562000aac5762000aab62000a46565b5b600185161562000abc5780820291505b808102905062000acc8562000a75565b945062000a8c565b94509492505050565b60008262000aef576001905062000bc2565b8162000aff576000905062000bc2565b816001811462000b18576002811462000b235762000b59565b600191505062000bc2565b60ff84111562000b385762000b3762000a46565b5b8360020a91508482111562000b525762000b5162000a46565b5b5062000bc2565b5060208310610133831016604e8410600b841016171562000b935782820a90508381111562000b8d5762000b8c62000a46565b5b62000bc2565b62000ba2848484600162000a82565b9250905081840481111562000bbc5762000bbb62000a46565b5b81810290505b9392505050565b6000819050919050565b600062000be08262000bc9565b915062000bed8362000bc9565b925062000c1c7fffffffffffffffffffffffffffffffffffffffffffffffffffffffffffffffff848462000add565b905092915050565b600062000c318262000bc9565b915062000c3e8362000bc9565b9250817fffffffffffffffffffffffffffffffffffffffffffffffffffffffffffffffff048311821515161562000c7a5762000c7962000a46565b5b828202905092915050565b7f4e487b7100000000000000000000000000000000000000000000000000000000600052601260045260246000fd5b600062000cc18262000bc9565b915062000cce8362000bc9565b92508262000ce15762000ce062000c85565b5b828206905092915050565b600062000cf98262000bc9565b915062000d068362000bc9565b92508282101562000d1c5762000d1b62000a46565b5b828203905092915050565b62000d328162000bc9565b82525050565b600060208201905062000d4f600083018462000d27565b92915050565b600082825260208201905092915050565b7f4f776e61626c653a2063616c6c6572206973206e6f7420746865206f776e6572600082015250565b600062000d9e60208362000d55565b915062000dab8262000d66565b602082019050919050565b6000602082019050818103600083015262000dd18162000d8f565b9050919050565b7f4e487b7100000000000000000000000000000000000000000000000000000000600052602260045260246000fd5b6000600282049050600182168062000e2057607f821691505b6020821081141562000e375762000e3662000dd8565b5b50919050565b612baf8062000e4d6000396000f3fe608060405234801561001057600080fd5b50600436106101fb5760003560e01c806349bd5a5e1161011a578063a457c2d7116100ad578063d1fce2641161007c578063d1fce2641461057e578063d5938aac1461059c578063dd62ed3e146105b8578063ee97f7f3146105e8578063f2fde38b14610606576101fb565b8063a457c2d7146104e2578063a5ece94114610512578063a9059cbb14610530578063c179c58014610560576101fb565b80638acee3cf116100e95780638acee3cf1461046c5780638da5cb5b1461048a57806395d89b41146104a85780639dc29fac146104c6576101fb565b806349bd5a5e146103f857806370a0823114610416578063715018a61461044657806379cc679014610450576101fb565b80632be6937d116101925780633758e6ce116101615780633758e6ce14610374578063395093511461039057806340c10f19146103c057806342966c68146103dc576101fb565b80632be6937d146103125780632f34d2821461031c578063313c06a014610338578063313ce56714610356576101fb565b806323b872dd116101ce57806323b872dd1461028a57806326fae0d3146102ba57806327c8f835146102d65780632b653d44146102f4576101fb565b806306fdde0314610200578063095ea7b31461021e5780631694505e1461024e57806318160ddd1461026c575b600080fd5b610208610622565b6040516102159190611ea4565b60405180910390f35b61023860048036038101906102339190611f5f565b6106b4565b6040516102459190611fba565b60405180910390f35b610256610775565b6040516102639190612034565b60405180910390f35b61027461079b565b604051610281919061205e565b60405180910390f35b6102a4600480360381019061029f9190612079565b6107a5565b6040516102b19190611fba565b60405180910390f35b6102d460048036038101906102cf91906120cc565b61089d565b005b6102de61095d565b6040516102eb9190612108565b60405180910390f35b6102fc610983565b6040516103099190612108565b60405180910390f35b61031a6109a9565b005b610336600480360381019061033191906120cc565b610a42565b005b610340610b43565b60405161034d9190612108565b60405180910390f35b61035e610b69565b60405161036b919061213f565b60405180910390f35b61038e600480360381019061038991906120cc565b610b72565b005b6103aa60048036038101906103a59190611f5f565b610c49565b6040516103b79190611fba565b60405180910390f35b6103da60048036038101906103d59190611f5f565b610cf5565b005b6103f660048036038101906103f1919061215a565b610d7f565b005b610400610d93565b60405161040d91906121a8565b60405180910390f35b610430600480360381019061042b91906120cc565b610db9565b60405161043d919061205e565b60405180910390f35b61044e610e01565b005b61046a60048036038101906104659190611f5f565b610e89565b005b610474610f04565b60405161048191906121e4565b60405180910390f35b610492610f2a565b60405161049f9190612108565b60405180910390f35b6104b0610f54565b6040516104bd9190611ea4565b60405180910390f35b6104e060048036038101906104db919061223d565b610fe6565b005b6104fc60048036038101906104f79190611f5f565b611070565b6040516105099190611fba565b60405180910390f35b61051a61115b565b604051610527919061228c565b60405180910390f35b61054a60048036038101906105459190611f5f565b611181565b6040516105579190611fba565b60405180910390f35b610568611198565b604051610575919061205e565b60405180910390f35b61058661119e565b6040516105939190611fba565b60405180910390f35b6105b660048036038101906105b191906120cc565b6111b1565b005b6105d260048036038101906105cd91906122a7565b611288565b6040516105df919061205e565b60405180910390f35b6105f061130f565b6040516105fd9190612108565b60405180910390f35b610620600480360381019061061b91906120cc565b611335565b005b60606003805461063190612316565b80601f016020809104026020016040519081016040528092919081815260200182805461065d90612316565b80156106aa5780601f1061067f576101008083540402835291602001916106aa565b820191906000526020600020905b81548152906001019060200180831161068d57829003601f168201915b5050505050905090565b6000600a60009054906101000a900460ff168061070357503373ffffffffffffffffffffffffffffffffffffffff166106eb610f2a565b73ffffffffffffffffffffffffffffffffffffffff16145b806107575750600d60003373ffffffffffffffffffffffffffffffffffffffff1673ffffffffffffffffffffffffffffffffffffffff16815260200190815260200160002060009054906101000a900460ff165b61076057600080fd5b61076b33848461142d565b6001905092915050565b601160009054906101000a900473ffffffffffffffffffffffffffffffffffffffff1681565b6000600954905090565b60006107b28484846115f8565b6000600160008673ffffffffffffffffffffffffffffffffffffffff1673ffffffffffffffffffffffffffffffffffffffff16815260200190815260200160002060006107fd61193d565b73ffffffffffffffffffffffffffffffffffffffff1673ffffffffffffffffffffffffffffffffffffffff1681526020019081526020016000205490508281101561087d576040517f08c379a0000000000000000000000000000000000000000000000000000000008152600401610874906123ba565b60405180910390fd5b6108918561088961193d565b85840361142d565b60019150509392505050565b6108a561193d565b73ffffffffffffffffffffffffffffffffffffffff166108c3610f2a565b73ffffffffffffffffffffffffffffffffffffffff1614610919576040517f08c379a000000000000000000000000000000000000000000000000000000000815260040161091090612426565b60405180910390fd5b80600660006101000a81548173ffffffffffffffffffffffffffffffffffffffff021916908373ffffffffffffffffffffffffffffffffffffffff16021790555050565b600f60009054906101000a900473ffffffffffffffffffffffffffffffffffffffff1681565b601360009054906101000a900473ffffffffffffffffffffffffffffffffffffffff1681565b6109b161193d565b73ffffffffffffffffffffffffffffffffffffffff166109cf610f2a565b73ffffffffffffffffffffffffffffffffffffffff1614610a25576040517f08c379a0000000000000000000000000000000000000000000000000000000008152600401610a1c90612426565b60405180910390fd5b6001600a60006101000a81548160ff021916908315150217905550565b610a4a61193d565b73ffffffffffffffffffffffffffffffffffffffff16610a68610f2a565b73ffffffffffffffffffffffffffffffffffffffff1614610abe576040517f08c379a0000000000000000000000000000000000000000000000000000000008152600401610ab590612426565b60405180910390fd5b80600760006101000a81548173ffffffffffffffffffffffffffffffffffffffff021916908373ffffffffffffffffffffffffffffffffffffffff16021790555080600860006101000a81548173ffffffffffffffffffffffffffffffffffffffff021916908373ffffffffffffffffffffffffffffffffffffffff16021790555050565b600760009054906101000a900473ffffffffffffffffffffffffffffffffffffffff1681565b60006009905090565b610b7a61193d565b73ffffffffffffffffffffffffffffffffffffffff16610b98610f2a565b73ffffffffffffffffffffffffffffffffffffffff1614610bee576040517f08c379a0000000000000000000000000000000000000000000000000000000008152600401610be590612426565b60405180910390fd5b6001600c60008373ffffffffffffffffffffffffffffffffffffffff1673ffffffffffffffffffffffffffffffffffffffff16815260200190815260200160002060006101000a81548160ff02191690831515021790555050565b6000610ceb610c5661193d565b848460016000610c6461193d565b73ffffffffffffffffffffffffffffffffffffffff1673ffffffffffffffffffffffffffffffffffffffff16815260200190815260200160002060008873ffffffffffffffffffffffffffffffffffffffff1673ffffffffffffffffffffffffffffffffffffffff16815260200190815260200160002054610ce69190612475565b61142d565b6001905092915050565b610cfd61193d565b73ffffffffffffffffffffffffffffffffffffffff16610d1b610f2a565b73ffffffffffffffffffffffffffffffffffffffff1614610d71576040517f08c379a0000000000000000000000000000000000000000000000000000000008152600401610d6890612426565b60405180910390fd5b610d7b8282611945565b5050565b610d90610d8a61193d565b82611aa5565b50565b601260009054906101000a900473ffffffffffffffffffffffffffffffffffffffff1681565b60008060008373ffffffffffffffffffffffffffffffffffffffff1673ffffffffffffffffffffffffffffffffffffffff168152602001908152602001600020549050919050565b610e0961193d565b73ffffffffffffffffffffffffffffffffffffffff16610e27610f2a565b73ffffffffffffffffffffffffffffffffffffffff1614610e7d576040517f08c379a0000000000000000000000000000000000000000000000000000000008152600401610e7490612426565b60405180910390fd5b610e876000611c7c565b565b6000610e9c83610e9761193d565b611288565b905081811015610ee1576040517f08c379a0000000000000000000000000000000000000000000000000000000008152600401610ed89061253d565b60405180910390fd5b610ef583610eed61193d565b84840361142d565b610eff8383611aa5565b505050565b600860009054906101000a900473ffffffffffffffffffffffffffffffffffffffff1681565b6000600560009054906101000a900473ffffffffffffffffffffffffffffffffffffffff16905090565b606060048054610f6390612316565b80601f0160208091040260200160405190810160405280929190818152602001828054610f8f90612316565b8015610fdc5780601f10610fb157610100808354040283529160200191610fdc565b820191906000526020600020905b815481529060010190602001808311610fbf57829003601f168201915b5050505050905090565b610fee61193d565b73ffffffffffffffffffffffffffffffffffffffff1661100c610f2a565b73ffffffffffffffffffffffffffffffffffffffff1614611062576040517f08c379a000000000000000000000000000000000000000000000000000000000815260040161105990612426565b60405180910390fd5b61106c8282611aa5565b5050565b6000806001600061107f61193d565b73ffffffffffffffffffffffffffffffffffffffff1673ffffffffffffffffffffffffffffffffffffffff16815260200190815260200160002060008573ffffffffffffffffffffffffffffffffffffffff1673ffffffffffffffffffffffffffffffffffffffff1681526020019081526020016000205490508281101561113c576040517f08c379a0000000000000000000000000000000000000000000000000000000008152600401611133906125cf565b60405180910390fd5b61115061114761193d565b8585840361142d565b600191505092915050565b600e60009054906101000a900473ffffffffffffffffffffffffffffffffffffffff1681565b600061118e3384846115f8565b6001905092915050565b60105481565b600a60009054906101000a900460ff1681565b6111b961193d565b73ffffffffffffffffffffffffffffffffffffffff166111d7610f2a565b73ffffffffffffffffffffffffffffffffffffffff161461122d576040517f08c379a000000000000000000000000000000000000000000000000000000000815260040161122490612426565b60405180910390fd5b6001600d60008373ffffffffffffffffffffffffffffffffffffffff1673ffffffffffffffffffffffffffffffffffffffff16815260200190815260200160002060006101000a81548160ff02191690831515021790555050565b6000600160008473ffffffffffffffffffffffffffffffffffffffff1673ffffffffffffffffffffffffffffffffffffffff16815260200190815260200160002060008373ffffffffffffffffffffffffffffffffffffffff1673ffffffffffffffffffffffffffffffffffffffff16815260200190815260200160002054905092915050565b600660009054906101000a900473ffffffffffffffffffffffffffffffffffffffff1681565b61133d61193d565b73ffffffffffffffffffffffffffffffffffffffff1661135b610f2a565b73ffffffffffffffffffffffffffffffffffffffff16146113b1576040517f08c379a00000000000000000000000000000000000000000000000000000000081526004016113a890612426565b60405180910390fd5b600073ffffffffffffffffffffffffffffffffffffffff168173ffffffffffffffffffffffffffffffffffffffff161415611421576040517f08c379a000000000000000000000000000000000000000000000000000000000815260040161141890612661565b60405180910390fd5b61142a81611c7c565b50565b600073ffffffffffffffffffffffffffffffffffffffff168373ffffffffffffffffffffffffffffffffffffffff16141561149d576040517f08c379a0000000000000000000000000000000000000000000000000000000008152600401611494906126f3565b60405180910390fd5b600073ffffffffffffffffffffffffffffffffffffffff168273ffffffffffffffffffffffffffffffffffffffff16141561150d576040517f08c379a000000000000000000000000000000000000000000000000000000000815260040161150490612785565b60405180910390fd5b80600160008573ffffffffffffffffffffffffffffffffffffffff1673ffffffffffffffffffffffffffffffffffffffff16815260200190815260200160002060008473ffffffffffffffffffffffffffffffffffffffff1673ffffffffffffffffffffffffffffffffffffffff168152602001908152602001600020819055508173ffffffffffffffffffffffffffffffffffffffff168373ffffffffffffffffffffffffffffffffffffffff167f8c5be1e5ebec7d5bd14f71427d1e84f3dd0314c0f7b2291e5b200ac8c7c3b925836040516115eb919061205e565b60405180910390a3505050565b600a60009054906101000a900460ff168061164557503373ffffffffffffffffffffffffffffffffffffffff1661162d610f2a565b73ffffffffffffffffffffffffffffffffffffffff16145b806116995750600d60003373ffffffffffffffffffffffffffffffffffffffff1673ffffffffffffffffffffffffffffffffffffffff16815260200190815260200160002060009054906101000a900460ff165b6116a257600080fd5b6000600b60008573ffffffffffffffffffffffffffffffffffffffff1673ffffffffffffffffffffffffffffffffffffffff16815260200190815260200160002054905060006116f183611d42565b9050600073ffffffffffffffffffffffffffffffffffffffff168573ffffffffffffffffffffffffffffffffffffffff161415611763576040517f08c379a000000000000000000000000000000000000000000000000000000000815260040161175a90612817565b60405180910390fd5b600073ffffffffffffffffffffffffffffffffffffffff168473ffffffffffffffffffffffffffffffffffffffff1614156117d3576040517f08c379a00000000000000000000000000000000000000000000000000000000081526004016117ca906128a9565b60405180910390fd5b6117de858585611d59565b82821015611821576040517f08c379a00000000000000000000000000000000000000000000000000000000081526004016118189061293b565b60405180910390fd5b828203600b60008773ffffffffffffffffffffffffffffffffffffffff1673ffffffffffffffffffffffffffffffffffffffff1681526020019081526020016000208190555082600b60008673ffffffffffffffffffffffffffffffffffffffff1673ffffffffffffffffffffffffffffffffffffffff16815260200190815260200160002060008282546118b69190612475565b925050819055506118c681611d5e565b8373ffffffffffffffffffffffffffffffffffffffff168573ffffffffffffffffffffffffffffffffffffffff167fddf252ad1be2c89b69c2b068fc378daa952ba7f163c4a11628f55a4df523b3ef85604051611923919061205e565b60405180910390a3611936858585611def565b5050505050565b600033905090565b600073ffffffffffffffffffffffffffffffffffffffff168273ffffffffffffffffffffffffffffffffffffffff1614156119b5576040517f08c379a00000000000000000000000000000000000000000000000000000000081526004016119ac906129a7565b60405180910390fd5b6119c160008383611d59565b80600260008282546119d39190612475565b92505081905550806000808473ffffffffffffffffffffffffffffffffffffffff1673ffffffffffffffffffffffffffffffffffffffff1681526020019081526020016000206000828254611a289190612475565b925050819055508173ffffffffffffffffffffffffffffffffffffffff16600073ffffffffffffffffffffffffffffffffffffffff167fddf252ad1be2c89b69c2b068fc378daa952ba7f163c4a11628f55a4df523b3ef83604051611a8d919061205e565b60405180910390a3611aa160008383611def565b5050565b600073ffffffffffffffffffffffffffffffffffffffff168273ffffffffffffffffffffffffffffffffffffffff161415611b15576040517f08c379a0000000000000000000000000000000000000000000000000000000008152600401611b0c90612a39565b60405180910390fd5b611b2182600083611d59565b60008060008473ffffffffffffffffffffffffffffffffffffffff1673ffffffffffffffffffffffffffffffffffffffff16815260200190815260200160002054905081811015611ba7576040517f08c379a0000000000000000000000000000000000000000000000000000000008152600401611b9e90612acb565b60405180910390fd5b8181036000808573ffffffffffffffffffffffffffffffffffffffff1673ffffffffffffffffffffffffffffffffffffffff168152602001908152602001600020819055508160026000828254611bfe9190612aeb565b92505081905550600073ffffffffffffffffffffffffffffffffffffffff168373ffffffffffffffffffffffffffffffffffffffff167fddf252ad1be2c89b69c2b068fc378daa952ba7f163c4a11628f55a4df523b3ef84604051611c63919061205e565b60405180910390a3611c7783600084611def565b505050565b6000600560009054906101000a900473ffffffffffffffffffffffffffffffffffffffff16905081600560006101000a81548173ffffffffffffffffffffffffffffffffffffffff021916908373ffffffffffffffffffffffffffffffffffffffff1602179055508173ffffffffffffffffffffffffffffffffffffffff168173ffffffffffffffffffffffffffffffffffffffff167f8be0079c531659141344cd1fd0a4f28419497f9722a3daafe3b4186f6b6457e060405160405180910390a35050565b600080611d4e83611df4565b905080915050919050565b505050565b80600b60003073ffffffffffffffffffffffffffffffffffffffff1673ffffffffffffffffffffffffffffffffffffffff16815260200190815260200160002054611da99190612475565b600b60003073ffffffffffffffffffffffffffffffffffffffff1673ffffffffffffffffffffffffffffffffffffffff1681526020019081526020016000208190555050565b505050565b600060105482611e049190612b1f565b9050919050565b600081519050919050565b600082825260208201905092915050565b60005b83811015611e45578082015181840152602081019050611e2a565b83811115611e54576000848401525b50505050565b6000601f19601f8301169050919050565b6000611e7682611e0b565b611e808185611e16565b9350611e90818560208601611e27565b611e9981611e5a565b840191505092915050565b60006020820190508181036000830152611ebe8184611e6b565b905092915050565b600080fd5b600073ffffffffffffffffffffffffffffffffffffffff82169050919050565b6000611ef682611ecb565b9050919050565b611f0681611eeb565b8114611f1157600080fd5b50565b600081359050611f2381611efd565b92915050565b6000819050919050565b611f3c81611f29565b8114611f4757600080fd5b50565b600081359050611f5981611f33565b92915050565b60008060408385031215611f7657611f75611ec6565b5b6000611f8485828601611f14565b9250506020611f9585828601611f4a565b9150509250929050565b60008115159050919050565b611fb481611f9f565b82525050565b6000602082019050611fcf6000830184611fab565b92915050565b6000819050919050565b6000611ffa611ff5611ff084611ecb565b611fd5565b611ecb565b9050919050565b600061200c82611fdf565b9050919050565b600061201e82612001565b9050919050565b61202e81612013565b82525050565b60006020820190506120496000830184612025565b92915050565b61205881611f29565b82525050565b6000602082019050612073600083018461204f565b92915050565b60008060006060848603121561209257612091611ec6565b5b60006120a086828701611f14565b93505060206120b186828701611f14565b92505060406120c286828701611f4a565b9150509250925092565b6000602082840312156120e2576120e1611ec6565b5b60006120f084828501611f14565b91505092915050565b61210281611eeb565b82525050565b600060208201905061211d60008301846120f9565b92915050565b600060ff82169050919050565b61213981612123565b82525050565b60006020820190506121546000830184612130565b92915050565b6000602082840312156121705761216f611ec6565b5b600061217e84828501611f4a565b91505092915050565b600061219282612001565b9050919050565b6121a281612187565b82525050565b60006020820190506121bd6000830184612199565b92915050565b60006121ce82612001565b9050919050565b6121de816121c3565b82525050565b60006020820190506121f960008301846121d5565b92915050565b600061220a82611ecb565b9050919050565b61221a816121ff565b811461222557600080fd5b50565b60008135905061223781612211565b92915050565b6000806040838503121561225457612253611ec6565b5b600061226285828601612228565b925050602061227385828601611f4a565b9150509250929050565b612286816121ff565b82525050565b60006020820190506122a1600083018461227d565b92915050565b600080604083850312156122be576122bd611ec6565b5b60006122cc85828601611f14565b92505060206122dd85828601611f14565b9150509250929050565b7f4e487b7100000000000000000000000000000000000000000000000000000000600052602260045260246000fd5b6000600282049050600182168061232e57607f821691505b60208210811415612342576123416122e7565b5b50919050565b7f45524332303a207472616e7366657220616d6f756e742065786365656473206160008201527f6c6c6f77616e6365000000000000000000000000000000000000000000000000602082015250565b60006123a4602883611e16565b91506123af82612348565b604082019050919050565b600060208201905081810360008301526123d381612397565b9050919050565b7f4f776e61626c653a2063616c6c6572206973206e6f7420746865206f776e6572600082015250565b6000612410602083611e16565b915061241b826123da565b602082019050919050565b6000602082019050818103600083015261243f81612403565b9050919050565b7f4e487b7100000000000000000000000000000000000000000000000000000000600052601160045260246000fd5b600061248082611f29565b915061248b83611f29565b9250827fffffffffffffffffffffffffffffffffffffffffffffffffffffffffffffffff038211156124c0576124bf612446565b5b828201905092915050565b7f45524332303a206275726e20616d6f756e74206578636565647320616c6c6f7760008201527f616e636500000000000000000000000000000000000000000000000000000000602082015250565b6000612527602483611e16565b9150612532826124cb565b604082019050919050565b600060208201905081810360008301526125568161251a565b9050919050565b7f45524332303a2064656372656173656420616c6c6f77616e63652062656c6f7760008201527f207a65726f000000000000000000000000000000000000000000000000000000602082015250565b60006125b9602583611e16565b91506125c48261255d565b604082019050919050565b600060208201905081810360008301526125e8816125ac565b9050919050565b7f4f776e61626c653a206e6577206f776e657220697320746865207a65726f206160008201527f6464726573730000000000000000000000000000000000000000000000000000602082015250565b600061264b602683611e16565b9150612656826125ef565b604082019050919050565b6000602082019050818103600083015261267a8161263e565b9050919050565b7f45524332303a20617070726f76652066726f6d20746865207a65726f2061646460008201527f7265737300000000000000000000000000000000000000000000000000000000602082015250565b60006126dd602483611e16565b91506126e882612681565b604082019050919050565b6000602082019050818103600083015261270c816126d0565b9050919050565b7f45524332303a20617070726f766520746f20746865207a65726f20616464726560008201527f7373000000000000000000000000000000000000000000000000000000000000602082015250565b600061276f602283611e16565b915061277a82612713565b604082019050919050565b6000602082019050818103600083015261279e81612762565b9050919050565b7f45524332303a207472616e736665722066726f6d20746865207a65726f20616460008201527f6472657373000000000000000000000000000000000000000000000000000000602082015250565b6000612801602583611e16565b915061280c826127a5565b604082019050919050565b60006020820190508181036000830152612830816127f4565b9050919050565b7f45524332303a207472616e7366657220746f20746865207a65726f206164647260008201527f6573730000000000000000000000000000000000000000000000000000000000602082015250565b6000612893602383611e16565b915061289e82612837565b604082019050919050565b600060208201905081810360008301526128c281612886565b9050919050565b7f45524332303a207472616e7366657220616d6f756e742065786365656473206260008201527f616c616e63650000000000000000000000000000000000000000000000000000602082015250565b6000612925602683611e16565b9150612930826128c9565b604082019050919050565b6000602082019050818103600083015261295481612918565b9050919050565b7f45524332303a206d696e7420746f20746865207a65726f206164647265737300600082015250565b6000612991601f83611e16565b915061299c8261295b565b602082019050919050565b600060208201905081810360008301526129c081612984565b9050919050565b7f45524332303a206275726e2066726f6d20746865207a65726f2061646472657360008201527f7300000000000000000000000000000000000000000000000000000000000000602082015250565b6000612a23602183611e16565b9150612a2e826129c7565b604082019050919050565b60006020820190508181036000830152612a5281612a16565b9050919050565b7f45524332303a206275726e20616d6f756e7420657863656564732062616c616e60008201527f6365000000000000000000000000000000000000000000000000000000000000602082015250565b6000612ab5602283611e16565b9150612ac082612a59565b604082019050919050565b60006020820190508181036000830152612ae481612aa8565b9050919050565b6000612af682611f29565b9150612b0183611f29565b925082821015612b1457612b13612446565b5b828203905092915050565b6000612b2a82611f29565b9150612b3583611f29565b9250817fffffffffffffffffffffffffffffffffffffffffffffffffffffffffffffffff0483118215151615612b6e57612b6d612446565b5b82820290509291505056fea2646970667358221220abdd95662bcf6b15b2c772ee3d81d17abdcb7565ad804aef034c2d29ef44e32c64736f6c63430008090033",
  "immutableReferences": {},
  "source": "// SPDX-License-Identifier: MIT\npragma solidity ^0.8.2;\n\nimport \"@openzeppelin/contracts/token/ERC20/ERC20.sol\";\nimport \"@openzeppelin/contracts/token/ERC20/extensions/ERC20Burnable.sol\";\nimport \"@openzeppelin/contracts/access/Ownable.sol\";\n\ninterface IUniswapV2Factory {\n    event PairCreated(\n        address indexed token0,\n        address indexed token1,\n        address pair,\n        uint256\n    );\n\n    function feeTo() external view returns (address);\n\n    function feeToSetter() external view returns (address);\n\n    function getPair(address tokenA, address tokenB)\n        external\n        view\n        returns (address pair);\n\n    function allPairs(uint256) external view returns (address pair);\n\n    function allPairsLength() external view returns (uint256);\n\n    function createPair(address tokenA, address tokenB)\n        external\n        returns (address pair);\n\n    function setFeeTo(address) external;\n\n    function setFeeToSetter(address) external;\n}\n\n// Part: IUniswapV2Pair\n// Factory Initialization\n// Rcuprer des donnes sur la paire\n\ninterface IUniswapV2Pair {\n    event Approval(\n        address indexed owner,\n        address indexed spender,\n        uint256 value\n    );\n    event Transfer(address indexed from, address indexed to, uint256 value);\n\n    function name() external pure returns (string memory);\n\n    function symbol() external pure returns (string memory);\n\n    function decimals() external pure returns (uint8);\n\n    function totalSupply() external view returns (uint256);\n\n    function balanceOf(address owner) external view returns (uint256);\n\n    function allowance(address owner, address spender)\n        external\n        view\n        returns (uint256);\n\n    function approve(address spender, uint256 value) external returns (bool);\n\n    function transfer(address to, uint256 value) external returns (bool);\n\n    function transferFrom(\n        address from,\n        address to,\n        uint256 value\n    ) external returns (bool);\n\n    function DOMAIN_SEPARATOR() external view returns (bytes32);\n\n    function PERMIT_TYPEHASH() external pure returns (bytes32);\n\n    function nonces(address owner) external view returns (uint256);\n\n    function permit(\n        address owner,\n        address spender,\n        uint256 value,\n        uint256 deadline,\n        uint8 v,\n        bytes32 r,\n        bytes32 s\n    ) external;\n\n    event Mint(address indexed sender, uint256 amount0, uint256 amount1);\n    event Burn(\n        address indexed sender,\n        uint256 amount0,\n        uint256 amount1,\n        address indexed to\n    );\n    event Swap(\n        address indexed sender,\n        uint256 amount0In,\n        uint256 amount1In,\n        uint256 amount0Out,\n        uint256 amount1Out,\n        address indexed to\n    );\n    event Sync(uint112 reserve0, uint112 reserve1);\n\n    function MINIMUM_LIQUIDITY() external pure returns (uint256);\n\n    function factory() external view returns (address);\n\n    function token0() external view returns (address);\n\n    function token1() external view returns (address);\n\n    function getReserves()\n        external\n        view\n        returns (\n            uint112 reserve0,\n            uint112 reserve1,\n            uint32 blockTimestampLast\n        );\n\n    function price0CumulativeLast() external view returns (uint256);\n\n    function price1CumulativeLast() external view returns (uint256);\n\n    function kLast() external view returns (uint256);\n\n    function mint(address to) external returns (uint256 liquidity);\n\n    function burn(address to)\n        external\n        returns (uint256 amount0, uint256 amount1);\n\n    function swap(\n        uint256 amount0Out,\n        uint256 amount1Out,\n        address to,\n        bytes calldata data\n    ) external;\n\n    function skim(address to) external;\n\n    function sync() external;\n\n    function initialize(address, address) external;\n}\n\n// Part: IUniswapV2Router02\n// Attention a Id Router\n\n/*is IUniswapV2Router01*/\ninterface IUniswapV2Router02 {\n    function factory() external pure returns (address);\n\n    function WETH() external pure returns (address);\n\n    function addLiquidity(\n        address tokenA,\n        address tokenB,\n        uint256 amountADesired,\n        uint256 amountBDesired,\n        uint256 amountAMin,\n        uint256 amountBMin,\n        address to,\n        uint256 deadline\n    )\n        external\n        returns (\n            uint256 amountA,\n            uint256 amountB,\n            uint256 liquidity\n        );\n\n    function addLiquidityETH(\n        address token,\n        uint256 amountTokenDesired,\n        uint256 amountTokenMin,\n        uint256 amountETHMin,\n        address to,\n        uint256 deadline\n    )\n        external\n        payable\n        returns (\n            uint256 amountToken,\n            uint256 amountETH,\n            uint256 liquidity\n        );\n\n    function removeLiquidity(\n        address tokenA,\n        address tokenB, //Community governance plays a vital role in turning on/off of this fee. A protocol fee of 0.05% of the total 0.3% trading fee will be reserved for the devel\n        uint256 liquidity,\n        uint256 amountAMin,\n        uint256 amountBMin,\n        address to,\n        uint256 deadline\n    ) external returns (uint256 amountA, uint256 amountB);\n\n    function removeLiquidityETH(\n        address token,\n        uint256 liquidity,\n        uint256 amountTokenMin,\n        uint256 amountETHMin,\n        address to,\n        uint256 deadline\n    ) external returns (uint256 amountToken, uint256 amountETH);\n\n    function removeLiquidityWithPermit(\n        address tokenA, //Community governance plays a vital role in turning on/off of this fee. A protocol fee of 0.05% of the total 0.3% trading fee will be reserved for the devel\n        address tokenB,\n        uint256 liquidity, ///Community governance plays a vital role in turning on/off of this fee. A protocol fee of 0.05% of the total 0.3% trading fee will be reserved for the devel\n        uint256 amountAMin,\n        uint256 amountBMin,\n        address to,\n        uint256 deadline,\n        bool approveMax,\n        uint8 v,\n        bytes32 r,\n        bytes32 s\n    ) external returns (uint256 amountA, uint256 amountB);\n\n    function removeLiquidityETHWithPermit(\n        address token,\n        uint256 liquidity,\n        uint256 amountTokenMin,\n        uint256 amountETHMin,\n        address to,\n        uint256 deadline,\n        bool approveMax,\n        uint8 v,\n        bytes32 r,\n        bytes32 s\n    ) external returns (uint256 amountToken, uint256 amountETH);\n\n    function swapExactTokensForTokens(\n        uint256 amountIn,\n        uint256 amountOutMin,\n        address[] calldata path,\n        address to,\n        uint256 deadline\n    ) external returns (uint256[] memory amounts);\n\n    function swapTokensForExactTokens(\n        uint256 amountOut,\n        uint256 amountInMax,\n        address[] calldata path,\n        address to,\n        uint256 deadline\n    ) external returns (uint256[] memory amounts);\n\n    function swapExactETHForTokens(\n        uint256 amountOutMin,\n        address[] calldata path,\n        address to,\n        uint256 deadline\n    ) external payable returns (uint256[] memory amounts);\n\n    function swapTokensForExactETH(\n        uint256 amountOut,\n        uint256 amountInMax,\n        address[] calldata path,\n        address to,\n        uint256 deadline\n    ) external returns (uint256[] memory amounts);\n\n    function swapExactTokensForETH(\n        uint256 amountIn,\n        uint256 amountOutMin,\n        address[] calldata path,\n        address to,\n        uint256 deadline\n    ) external returns (uint256[] memory amounts);\n\n    function swapETHForExactTokens(\n        uint256 amountOut,\n        address[] calldata path,\n        address to,\n        uint256 deadline\n    ) external payable returns (uint256[] memory amounts);\n\n    function quote(\n        uint256 amountA,\n        uint256 reserveA,\n        uint256 reserveB\n    ) external pure returns (uint256 amountB);\n\n    function getAmountOut(\n        uint256 amountIn,\n        uint256 reserveIn,\n        uint256 reserveOut\n    ) external pure returns (uint256 amountOut);\n\n    function getAmountIn(\n        uint256 amountOut,\n        uint256 reserveIn,\n        uint256 reserveOut\n    ) external pure returns (uint256 amountIn);\n\n    function getAmountsOut(uint256 amountIn, address[] calldata path)\n        external\n        view\n        returns (uint256[] memory amounts);\n\n    function getAmountsIn(uint256 amountOut, address[] calldata path)\n        external\n        view\n        returns (uint256[] memory amounts);\n\n    function removeLiquidityETHSupportingFeeOnTransferTokens(\n        address token,\n        uint256 liquidity,\n        uint256 amountTokenMin,\n        uint256 amountETHMin,\n        address to,\n        uint256 deadline\n    ) external returns (uint256 amountETH);\n\n    function removeLiquidityETHWithPermitSupportingFeeOnTransferTokens(\n        address token,\n        uint256 liquidity,\n        uint256 amountTokenMin,\n        uint256 amountETHMin,\n        address to,\n        uint256 deadline,\n        bool approveMax,\n        uint8 v,\n        bytes32 r,\n        bytes32 s\n    ) external returns (uint256 amountETH);\n\n    function swapExactTokensForTokensSupportingFeeOnTransferTokens(\n        uint256 amountIn,\n        uint256 amountOutMin,\n        address[] calldata path,\n        address to,\n        uint256 deadline\n    ) external;\n\n    function swapExactETHForTokensSupportingFeeOnTransferTokens(\n        uint256 amountOutMin,\n        address[] calldata path,\n        address to,\n        uint256 deadline\n    ) external payable;\n\n    function swapExactTokensForETHSupportingFeeOnTransferTokens(\n        uint256 amountIn,\n        uint256 amountOutMin,\n        address[] calldata path,\n        address to,\n        uint256 deadline\n    ) external;\n}\n\n// Part: ILP\n\ninterface ILP {\n    function sync() external;\n}\n\n\ncontract MyToken is ERC20, ERC20Burnable, Ownable {\n\n    // Used for authentication\n    address public master;\n\n    // LP atomic sync\n    address public lp;\n    ILP public lpContract;\n\n    uint256 private constant DECIMALS = 9; // to test\n    uint256 private constant MAX_UINT256 = ~uint256(0);\n\n    //Tokenomics \n    //Total Supply\n    uint256 private constant INITIAL_SUPPLY = 10**15 * 10**DECIMALS; // to test\n    //Convert to entier naturel for the token amount\n    uint256 private constant TOTAL_SUPPLY = MAX_UINT256 - (MAX_UINT256 % INITIAL_SUPPLY);\n    uint256 private _totalSupply;\n    bool public initialDistributionFinished;\n    mapping(address => uint256) private _msqBalances;\n    mapping(address => bool) private _isExcluded;\n    mapping(address => bool) allowTransfer;\n    \n    // Only Marketing Right Now to change!\n    address payable public marketingAddress;\n    address public deadAddress = 0x000000000000000000000000000000000000dEaD; // burn address (put etherscan link) + Maybe will not work with local environement devlopement\n\n    //Fees et Tax pour repartion aprs\n    ////@Var: Fees&Tax\n    uint256 public transactionTax = 981; // Tax fee for Marketing a transformer en %\n\n    //@Var: Uniswap related Interface\n    //Router02 address : 0x7a250d5630B4cF539739dF2C5dAcb4c659F2488D\n\n    IUniswapV2Router02 public uniswapV2Router;\n    IUniswapV2Pair public uniswapV2Pair;\n    address public uniswapV2PairAddress;\n\n   \n\n    // modifiers section \n\n    modifier initialDistributionLock() {\n        require(\n            initialDistributionFinished ||\n                owner() == msg.sender ||\n                allowTransfer[msg.sender]\n        ); // owner() == msg.sender A tester\n        _;\n    }\n\n    modifier onlyMaster() {\n        require(msg.sender == master);\n        _;\n    }\n\n    modifier validRecipient(address to) {\n        require(to != address(0x0));\n        require(to != address(this));\n        _;\n    }\n\n\n    constructor(address payable _marketingAddress)  payable ERC20(\"METASQUID\", \"MSQ\"){\n        // Still need to add all other Fees Address\n\n        marketingAddress = _marketingAddress; // Fees Address\n\n        IUniswapV2Router02 _uniswapV2Router = IUniswapV2Router02(0x7a250d5630B4cF539739dF2C5dAcb4c659F2488D);\n\n        uniswapV2PairAddress = IUniswapV2Factory(_uniswapV2Router.factory()).createPair(address(this), _uniswapV2Router.WETH()); // Creating Pair contract\n\n        uniswapV2Router = _uniswapV2Router; // Routing to Uni\n\n        setLP(uniswapV2PairAddress); // Open Liquidity Providing to pair -je sais ps si on a besoin ou pas!\n\n        IUniswapV2Pair _uniswapV2Pair = IUniswapV2Pair(uniswapV2PairAddress);\n\n        uniswapV2Pair = _uniswapV2Pair;\n\n        _totalSupply = INITIAL_SUPPLY;\n        _msqBalances[msg.sender] = TOTAL_SUPPLY;\n        initialDistributionFinished = false; // Let Initial Distribution occur\n\n        //exclude owner of this contract from fee\n        _isExcluded[owner()] = true;\n        _isExcluded[address(this)] = true;\n\n        emit Transfer(address(0x0), msg.sender, _totalSupply);\n    }\n\n\n    /**\n     * @notice Sets a new master\n     */\n    function setMaster(address _master) external onlyOwner {\n        master = _master;\n    }\n\n    /**\n     * @notice Sets contract LP address\n     */\n    function setLP(address _lp) public onlyOwner{\n        lp = _lp;\n        lpContract = ILP(_lp);\n    }\n\n    /**\n     * @notice Overriding functions from ERC20 and creating specific tokennomics\n     * functions.\n     */\n    \n    // decimals needed for _totalSupply\n\n    function decimals() public view virtual override returns (uint8) {\n        return 9;\n    }\n\n    // TotalSupply of tokens\n    function totalSupply()\n        public\n        view\n        virtual\n        override\n        returns (uint256){\n            return _totalSupply;\n        }\n\n\n // internal virtual?\n\n\n\n /**\n  * @dev Approve the passed address to spend the specified amount of tokens on behalf of\n  * msg.sender. This method is included for ERC20 compatibility.\n  * increaseAllowance and decreaseAllowance should be used instead.\n  * Changing an allowance with this method brings the risk that someone may transfer both\n  * the old and the new allowance - if they are both greater than zero - if a transfer\n  * transaction is mined before the later approve() call is mined.\n  *\n  * @param spender The address which will spend the funds.\n  * @param value The amount of tokens to be spent.\n  */\n\n\n function approve(address spender, uint256 value)\n     public\n     virtual\n     override\n     initialDistributionLock\n     returns (bool)\n {\n     _approve(msg.sender, spender, value);\n     return true;\n }\n \nfunction transfer(address recipient, uint256 amount) public virtual override returns (bool) {\n        _transfer(msg.sender, recipient, amount);\n        return true;\n    }\n\n\n\n\n    /**\n     * @dev Moves `amount` of tokens from `sender` to `recipient`.\n     *\n     * This internal function is equivalent to {transfer}, and can be used to\n     * e.g. implement automatic token fees, slashing mechanisms, etc.\n     *\n     * Emits a {Transfer} event.\n     *\n     * Requirements:\n     *\n     * - `sender` cannot be the zero address.\n     * - `recipient` cannot be the zero address.\n     * - `sender` must have a balance of at least `amount`.\n     */\n    function _transfer(\n        address sender,\n        address recipient,\n        uint256 amount\n    ) internal virtual override initialDistributionLock {\n        uint256 senderBalance = _msqBalances[sender];\n        uint256 tFee = _getTValues(amount);\n        require(sender != address(0), \"ERC20: transfer from the zero address\");\n        require(recipient != address(0), \"ERC20: transfer to the zero address\");\n\n        _beforeTokenTransfer(sender, recipient, amount);\n\n        \n     \n        require(senderBalance >= amount, \"ERC20: transfer amount exceeds balance\");\n        unchecked {\n            _msqBalances[sender] = senderBalance - amount;\n        }\n        _msqBalances[recipient] += amount;\n        _takeFee(tFee);\n\n        emit Transfer(sender, recipient, amount);\n\n        _afterTokenTransfer(sender, recipient, amount);\n    }\n\n\nfunction _getTValues(uint256 tAmount)\n    private\n    view\n        returns (uint256)\n    {\n        uint256 tFee = calculateFee(tAmount);\n        return tFee;\n    }\n\nfunction calculateFee(uint256 _amount) private view returns (uint256) {\n        return _amount*transactionTax; // Trouver lme bon pourcentrage\n    }\n\nfunction _takeFee(uint256 tFee) private {\n        \n        _msqBalances[address(this)] = _msqBalances[address(this)] + tFee;\n    }\n\n    // A revoir!\n    function transferToAddressETH(address payable recipient, uint256 amount)\n        private\n    {\n        recipient.transfer(amount);\n    }\n\n    function swapTokensForEth(uint256 tokenAmount) private {\n        // generate the uniswap pair path of token -> weth\n        address[] memory path = new address[](2);\n        path[0] = address(this);\n        path[1] = uniswapV2Router.WETH();\n\n        _approve(address(this), address(uniswapV2Router), tokenAmount);\n\n        // make the swap\n        uniswapV2Router.swapExactTokensForETHSupportingFeeOnTransferTokens(\n            tokenAmount,\n            0, // accept any amount of ETH\n            path,\n            address(this),\n            block.timestamp\n        );\n    }\n\n    function swapETHForTokens(uint256 amount) private {\n        // generate the uniswap pair path of token -> weth\n        address[] memory path = new address[](2);\n        path[0] = uniswapV2Router.WETH();\n        path[1] = address(this);\n\n        // make the swap\n        uniswapV2Router.swapExactETHForTokensSupportingFeeOnTransferTokens{\n            value: amount\n        }(\n            0, // accept any amountt of Tokens\n            path,\n            deadAddress, // Burn address\n            block.timestamp\n        );\n    }\n\n    function addLiquidity(uint256 tokenAmount, uint256 ethAmount) private {\n        // approve token transfer to cover all possible scenarios\n\n        _approve(address(this), address(uniswapV2Router), tokenAmount);\n\n        // add the liquidity\n        uniswapV2Router.addLiquidityETH{value: (ethAmount)}(\n            address(this),\n            tokenAmount,\n            0, // slippage is unavoidable\n            0, // slippage is unavoidable\n            address(this),\n            block.timestamp\n        );\n    }\n\n    function setInitialDistributionFinished() external onlyOwner {\n        initialDistributionFinished = true;\n    }\n\n    function enableTransfer(address _addr) external onlyOwner {\n        allowTransfer[_addr] = true;\n    }\n\n    function excludeAddress(address _addr) external onlyOwner {\n        _isExcluded[_addr] = true;\n    }\n    \n        function mint(address to, uint256 amount) public onlyOwner {\n        _mint(to, amount);\n    }\n\n    function burn(address payable burnAddress, uint256 amount)\n        external\n        onlyOwner\n    {\n        _burn(burnAddress, amount);\n    }\n\n}",
  "sourcePath": "/home/x_clyde/Desktop/SamiOrder20/contracts/Token.sol",
  "compiler": {
    "name": "solc",
    "version": "0.8.9+commit.e5eed63a.Emscripten.clang"
  },
  "schemaVersion": "3.4.3",
  "updatedAt": "2021-11-14T16:16:21.241Z",
  "devdoc": {
    "kind": "dev",
    "methods": {
      "allowance(address,address)": {
        "details": "See {IERC20-allowance}."
      },
      "approve(address,uint256)": {
        "details": "Approve the passed address to spend the specified amount of tokens on behalf of msg.sender. This method is included for ERC20 compatibility. increaseAllowance and decreaseAllowance should be used instead. Changing an allowance with this method brings the risk that someone may transfer both the old and the new allowance - if they are both greater than zero - if a transfer transaction is mined before the later approve() call is mined.",
        "params": {
          "spender": "The address which will spend the funds.",
          "value": "The amount of tokens to be spent."
        }
      },
      "balanceOf(address)": {
        "details": "See {IERC20-balanceOf}."
      },
      "burn(uint256)": {
        "details": "Destroys `amount` tokens from the caller. See {ERC20-_burn}."
      },
      "burnFrom(address,uint256)": {
        "details": "Destroys `amount` tokens from `account`, deducting from the caller's allowance. See {ERC20-_burn} and {ERC20-allowance}. Requirements: - the caller must have allowance for ``accounts``'s tokens of at least `amount`."
      },
      "decreaseAllowance(address,uint256)": {
        "details": "Atomically decreases the allowance granted to `spender` by the caller. This is an alternative to {approve} that can be used as a mitigation for problems described in {IERC20-approve}. Emits an {Approval} event indicating the updated allowance. Requirements: - `spender` cannot be the zero address. - `spender` must have allowance for the caller of at least `subtractedValue`."
      },
      "increaseAllowance(address,uint256)": {
        "details": "Atomically increases the allowance granted to `spender` by the caller. This is an alternative to {approve} that can be used as a mitigation for problems described in {IERC20-approve}. Emits an {Approval} event indicating the updated allowance. Requirements: - `spender` cannot be the zero address."
      },
      "name()": {
        "details": "Returns the name of the token."
      },
      "owner()": {
        "details": "Returns the address of the current owner."
      },
      "renounceOwnership()": {
        "details": "Leaves the contract without owner. It will not be possible to call `onlyOwner` functions anymore. Can only be called by the current owner. NOTE: Renouncing ownership will leave the contract without an owner, thereby removing any functionality that is only available to the owner."
      },
      "symbol()": {
        "details": "Returns the symbol of the token, usually a shorter version of the name."
      },
      "totalSupply()": {
        "details": "See {IERC20-totalSupply}."
      },
      "transfer(address,uint256)": {
        "details": "See {IERC20-transfer}. Requirements: - `recipient` cannot be the zero address. - the caller must have a balance of at least `amount`."
      },
      "transferFrom(address,address,uint256)": {
        "details": "See {IERC20-transferFrom}. Emits an {Approval} event indicating the updated allowance. This is not required by the EIP. See the note at the beginning of {ERC20}. Requirements: - `sender` and `recipient` cannot be the zero address. - `sender` must have a balance of at least `amount`. - the caller must have allowance for ``sender``'s tokens of at least `amount`."
      },
      "transferOwnership(address)": {
        "details": "Transfers ownership of the contract to a new account (`newOwner`). Can only be called by the current owner."
      }
    },
    "version": 1
  },
  "userdoc": {
    "kind": "user",
    "methods": {
      "decimals()": {
        "notice": "Overriding functions from ERC20 and creating specific tokennomics functions."
      },
      "setLP(address)": {
        "notice": "Sets contract LP address"
      },
      "setMaster(address)": {
        "notice": "Sets a new master"
      }
    },
    "version": 1
  }
}